:020000040800F2
:1000000000000220D9040008D10B0008D50B00081D
:10001000D70B0008D90B0008DB0B0008000000001C
:10002000000000000000000000000000DD0B0008E0
:10003000DF0B000800000000E10B0008E30B0008E4
:1000400029050008290500082905000829050008D8
:1000500029050008290500082905000829050008C8
:1000600029050008290500082905000829050008B8
:1000700029050008290500082905000829050008A8
:100080002905000829050008290500082905000898
:10009000290500082905000829050008F10B0008BA
:1000A0002905000829050008290500082905000878
:1000B0002905000829050008050C00082905000885
:1000C0002905000829050008290500082905000858
:1000D0002905000829050008290500082905000848
:1000E0002D0C00082905000829050008290500082D
:1000F0002905000829050008290500082905000828
:100100002905000829050008290D0008290500080F
:100110002905000829050008290500082905000807
:1001200029050008290500082905000829050008F7
:1001300029050008290500082905000829050008E7
:1001400029050008290500082905000829050008D7
:1001500029050008290500082905000829050008C7
:1001600029050008290500082905000829050008B7
:1001700029050008290500082905000800000000DD
:0801800029050008290500080B
:1001880010B5054C237833B9044B13B10448AFF3C9
:1001980000800123237010BD100000200000000023
:1001A800681B000808B5034B1BB103490348AFF3AC
:1001B800008008BD0000000014000020681B000833
:1001C80053B94AB9002908BF00281CBF4FF0FF31B6
:1001D8004FF0FF3000F07AB9ADF1080C6DE904CEAC
:1001E80000F006F8DDF804E0DDE9022304B070470A
:1001F8002DE9F0478C460D460446089E002B51D148
:100208008A4217466DD9B2FA82FEBEF1000F0BD0B2
:10021800CEF1200C01FA0EF520FA0CFC02FA0EF7CA
:100228004CEA050C00FA0EF44FEA174A250CBCFB01
:10023800FAF81FFA87F90AFB18CC45EA0C4508FBBF
:1002480009F3AB420AD9ED1908F1FF3280F0238196
:10025800AB4240F22081A8F102083D44ED1AA4B255
:10026800B5FBFAF00AFB105544EA054400FB09F90E
:10027800A14509D9E41900F1FF3380F00A81A145AD
:1002880040F2078102383C44A4EB090440EA0840E4
:100298000021002E61D024FA0EF40023346073602C
:1002A800BDE8F0878B4207D9002E54D0002186E89C
:1002B80021000846BDE8F087B3FA83F1002940F031
:1002C8008E80AB4202D3824200F2FA80841A65EB38
:1002D80003050120AC46002E3FD086E81010BDE88B
:1002E800F08712B90127B7FBF2F7B7FA87FEBEF11C
:1002F800000F34D1EB1B3A0C1FFA87FC0121B3FB2A
:10030800F2F8250C02FB183345EA03450CFB08F309
:10031800AB4207D9ED1908F1FF3002D2AB4200F227
:10032800D1808046ED1AA3B2B5FBF2F002FB10555E
:1003380043EA05440CFB00FCA44507D9E41900F185
:10034800FF3302D2A44500F2B8801846A4EB0C048F
:1003580040EA08409DE731463046BDE8F087CEF1D7
:10036800200405FA0EF307FA0EF720FA04F83A0CFF
:1003780025FA04F448EA0308B4FBF2F14FEA1845F9
:1003880002FB11441FFA87FC45EA044501FB0CF304
:10039800AB4200FA0EF409D9ED1901F1FF3080F0F3
:1003A8008A80AB4240F2878002393D44EB1A1FFA3B
:1003B80088F5B3FBF2F002FB103345EA034500FB76
:1003C8000CF3AB4207D9ED1900F1FF386FD2AB42FD
:1003D8006DD902383D44EB1A40EA01418FE7C1F17B
:1003E800200722FA07F88B4005FA01F448EA0303CC
:1003F80020FA07FE4FEA134CFD404EEA040EB5FB07
:10040800FCF94FEA1E440CFB19551FFA83F844EA1D
:10041800054509FB08F4AC4202FA01F200FA01FAB8
:1004280008D9ED1809F1FF3043D2AC4241D9A9F1FE
:1004380002091D442D1B1FFA8EFEB5FBFCF00CFBB8
:1004480010554EEA054400FB08F8A04507D9E41802
:1004580000F1FF3529D2A04527D902381C4440EACB
:100468000940A4EB0804A0FB02894C45C6464D464A
:1004780015D312D056B1BAEB0E0364EB050404FA97
:1004880007F7CB401F43CC40376074600021BDE8BC
:10049800F0871846F8E69046E0E6C245EAD2B8EB9F
:1004A800020E69EB03050138E4E72846D7E7404622
:1004B80091E78146BEE7014678E702383C4445E7C4
:1004C800084608E7A8F102083D442BE7704700BF3B
:1004D800DFF834D0002103E00C4B5B584350043163
:1004E8000B480C4B42189A42F6D30B4A02E0002301
:1004F80042F8043B094B9A42F9D300F025FC01F07D
:100508000BFB00F069F8704700000220A01B0008F0
:1005180000000020100000201000002054010020DE
:10052800FEE7000030B595B0294B002101911A6C07
:1005380042F080521A641B6C03F080530193019BB4
:10054800244B02911A6842F480421A601B6803F433
:1005580080430293029B012308934FF4803309934D
:100568004FF480030F9308230224109304254FF4BB
:10057800A87308A80E9411931294139500F0CEFD59
:1005880000B1FEE70F2303934FF4A05305900693A1
:1005980005214FF4805303A80494079300F074FFD7
:1005A800044600B1FEE700F03BFF01F007F84FF406
:1005B8007A73B0FBF3F000F0A3FC284600F0B6FC19
:1005C800224621464FF0FF3000F05AFC15B030BDEE
:1005D800003802400070004080B590B0002400F060
:1005E800FDFBFFF79FFF864B02941A6B854842F08C
:1005F80080021A631A6B02F080020292029A039434
:100608001A6B42F004021A631A6B02F00402039296
:10061800039A04941A6B42F010021A631A6B02F0E0
:1006280010020492049A05941A6B42F001021A63AC
:100638001A6B02F001020592059A06941A6B42F0B1
:1006480008021A631B6B03F00803069322460F2166
:10065800069B00F05DFD224663216B4800F058FDC3
:1006680001250F2309A9674809930A950B940C944F
:1006780000F06EFC4FF47E43099309A9634B64486C
:100688000A930B9400F064FC632309A95E4809935C
:100698000A950B940C9400F05BFC2946224617201F
:1006A80000F0EEFB172000F01FFC29462246282008
:1006B800584D00F0E5FB282000F016FC53264FF0BB
:1006C800804385E8480028464FF0FF33AC60EB6074
:1006D8002C6101F02DF92F4600B1FEE74FF480534D
:1006E80009A92846099301F005F800B1FEE707902B
:1006F800089007A9284601F0EDF900B1FEE7464C3D
:100708004649A06040F28F6384E80A00206140F205
:10071800E7332046E36001F025F9254600B1FEE7FE
:100728000790089007A9204601F0D4F9024600B1C5
:10073800FEE7602309930A9002230D9009A9204639
:100748000B9301F059F900B1FEE7042209A92046EC
:1007580001F052F900B1FEE7082209A9204601F08C
:100768004BF900B1FEE70C2209A9204601F044F933
:10077800804600B1FEE7204600F00CFA284C294BD1
:10078800C4F8108084E84801204649F63F43E360F6
:1007980001F0CEF8264600B1FEE74FF4805809A9CB
:1007A8001F48CDF8248000F0A5FF00B1FEE70790B0
:1007B800089007A91A4801F08DF900B1FEE71A4C14
:1007C8001A4AA060532384E80C00206149F63F438D
:1007D8002046E36001F0ACF800B1FEE709A9204625
:1007E800CDF8248000F086FF00B1FEE7079008905E
:1007F80007A9204601F06EF90146C8B1FEE700BF1F
:100808000038024000080240000C0240000031108D
:100818000010024014010020D8000020000400400D
:1008280060000020000800409C000020000C0040F0
:100838000122286801F042F901220421286801F008
:100848003DF901220821286801F038F901220C211C
:10085800286801F033F92B685A6C42F400425A6454
:100868006FF001021A61D9681140D96040F2F311A2
:1008780059639963D9631964196841F001011960D2
:100888003B68196841F0010119601A61D968114083
:10089800D9603368614E196841F0010119601A6125
:1008A800D96841F00101D96023685D4C196841F0AD
:1008B800010119601A61DA6842F00102DA6027461C
:1008C800584B594A1988B3F80CE05848A1EB0E0365
:1008D8001BB2238023881BB2B3F5C87FA4BF4FF493
:1008E800C87323803B881BB213F5C87FDCBF4FF663
:1008F80070633B803B881BB207EE903AB8EEE77A0C
:10090800F0EE047A4A4B27EE277A714483ED007A99
:10091800D3ED006AD2ED005A90ED006A92ED007AAC
:10092800444B76EEE56A09B2A6EE867A82ED007A45
:100938001980198809B2B1F5C87FB0EE677A4FDB24
:100948004FF4C87119801B883B491BB207EE903AD7
:10095800F8EEE77A394B67EE877AC3ED007A93EDC4
:10096800007A374B93ED006AD0ED006AD3ED007A38
:1009780037EE467AE7EE267AC3ED007AD2ED007AB2
:10098800F5EEC07AF1EE10FAD2ED007A30DBFCEE2B
:10099800E77ACDED017ABDF804200A804FF4803261
:1009A800B261D3ED007A274AF5EEC07AF1EE10FA7B
:1009B800D3ED007A27DBFCEEE77ACDED017ABDF8BE
:1009C800043013804FF40033B3610B8828689BB25E
:1009D800436313889BB28363012000F02BFA6FE70F
:1009E800198809B211F5C87FADDC4FF67061A9E727
:1009F800F1EE677AFCEEE77ACDED017ABDF80420D6
:100A08000A800122CCE7F1EE677AFCEEE77ACDEDB9
:100A1800017ABDF8043013800223D5E7000C0240A8
:100A28003C000020440000202C0000200000002092
:100A3800300000203E000020400000203800002048
:100A4800340000204200002013B5224B00240094FB
:100A58005A6C42F480425A645A6C02F48042009202
:100A6800009A01941A6C42F080521A641B6C03F0CD
:100A7800805301930320019B00F0F0F922462146A0
:100A88006FF00B0000F0FCF9224621466FF00A00D7
:100A980000F0F6F9224621466FF0090000F0F0F95F
:100AA800224621466FF0040000F0EAF9224621466A
:100AB8006FF0030000F0E4F9224621466FF00100D0
:100AC80000F0DEF9224621464FF0FF3000F0D8F959
:100AD80002B010BD003802401FB50368B3F1804F63
:100AE8000ED1002301931C4B1A6C42F001021A64C8
:100AF8001B6C03F001030193019B05B05DF804FB37
:100B0800164A934213D1144B00220292196C41F0F9
:100B1800040119641B6C03F0040302931E200221D4
:100B2800029B00F0ADF91E2000F0DEF9E5E70C4A63
:100B38009342E2D1084B00220392196C41F008015C
:100B480019641B6C03F00803039332200221039BF2
:100B580000F096F93220E7E700380240000800402C
:100B6800000C00400268094B9A4282B00BD1002366
:100B78000193074B1A6C42F002021A641B6C03F0D3
:100B880002030193019B02B0704700BF00040040BC
:100B9800003802407FB50268094B9A420CD14FF4E5
:100BA80070730022019301A902230648029303925D
:100BB8000492059300F0CCF907B05DF804FB00BF80
:100BC800000400400008024000F000BDFEE7FEE718
:100BD800FEE7FEE770477047704708B500F018F960
:100BE800BDE8084000F0AFB9034B5A69920544BF0D
:100BF8004FF400725A617047003C0140074B1B6874
:100C08001A69D10708D5DA68D20705D56FF001024D
:100C18001A61034B00221A60704700BF6000002071
:100C280044000020384B5A6951051ED54FF48062A4
:100C38005A6103F5544335491B691340344A08D0B7
:100C4800136800225A620B685A626FF001021A6137
:100C580011E012682F48526AA2F2DC5202600A6858
:100C680053626FF00103136105E05A69120514D548
:100C78004FF400625A61244B5A69120443D54FF469
:100C880000425A6103F554431B6913F4004F204B8B
:100C98001B6833D000225A6270475A6912F4805296
:100CA80002D04FF48052E5E7596911F4005111D090
:100CB8004FF400515961184B15481B690B401749EF
:100CC80001D00368BEE702681248526AA2F2DC52F9
:100CD800C260C4E75A695004CDD54FF480425A61C6
:100CE8000D4B1B6913F4804F094B1B6801D05962E7
:100CF800C1E75B6A074AA3F2DC53B4E75B6A054ABB
:100D0800A3F2DC5353617047003C014060000020AF
:100D18001401002044000020001002409C00002024
:100D2800074B1B681A69D10708D5DA68D20705D5B9
:100D38006FF001021A61034B0022DA60704700BFAE
:100D48009C000020440000200F49D1F8883043F46B
:100D58007003C1F888300D4B1A68002042F0010278
:100D68001A6098601A6822F0847222F480321A603D
:100D7800074A5A601A6822F480221A60D8604FF035
:100D880000638B60704700BF00ED00E00038024050
:100D98001030002438B50E4A0E4B054618784FF42B
:100DA8007A73B3FBF0F31068B0FBF3F000F0A8F827
:100DB800044658B90F2D09D8024629464FF0FF308E
:100DC80000F05EF8044B20461D6038BD012038BD98
:100DD80004000020080000200C00002008B50B4B80
:100DE8001A6842F400721A601A6842F480621A6043
:100DF8001A6842F480721A60032000F02FF800206D
:100E0800FFF7C8FFFFF720FE002008BD003C0240A6
:100E1800034A044B11681B780B441360704700BFEA
:100E28005001002008000020014B1868704700BFDF
:100E38005001002038B50446FFF7F6FF631C1CBFBD
:100E4800054B1B78054618BFE418FFF7EDFF401B5C
:100E58008442FAD838BD00BF08000020074AD3688A
:100E680023F4E0631B041B0C43F0BF63000243F44C
:100E7800003300F4E0600343D360704700ED00E006
:100E8800174B30B5DC68C4F30224C4F10703251DF1
:100E9800042B28BF0423062D4FF0010505FA03F3A0
:100EA80003F1FF338CBF033C00241940A14005FA2D
:100EB80004F4013C2240002842EA01024FEA0212EF
:100EC800AFBF00F1604000F00F00064BD2B2A5BFE3
:100ED80000F56140D2B21A5480F8002330BD00BF3B
:100EE80000ED00E014ED00E04209012300F01F00CE
:100EF80003FA00F0014B43F82200704700E100E0DC
:100F08000138B0F1807F0AD2064B074A5860F021B9
:100F180082F823100020072298601A607047012089
:100F2800704700BF10E000E000ED00E0044B1A68D5
:100F380004280CBF42F0040222F004021A60704731
:100F480010E000E0704708B5FFF7FCFF08BD00009F
:100F58002DE9F04F85B00B68DFF8AC81684ADFF8FF
:100F6800AC91019300234FF0010E019C0EFA03FE91
:100F78000EEA0406B64540F0AE804C6824F010072F
:100F8800022F16D14FEAD30A00EB8A0A03F0070BA7
:100F9800DAF820504FEA8B0B4FF00F0C0CFA0BFCD1
:100FA80025EA0C0C0D6905FA0BF545EA0C05CAF89B
:100FB80020504FEA430A0325D0F800B005FA0AF595
:100FC800ED4304F0030C0BEA050B0CFA0AFC013F95
:100FD8004CEA0B0C012FC0F800C011D8876807EA4B
:100FE800050BCF6807FA0AFC4CEA0B0787604768CD
:100FF80027EA0E0EC4F300179F4047EA0E07476022
:10100800C7683D408F6807FA0AF73D43C560E500A9
:1010180061D54FF0000BCDF80CB0D8F84470394DBD
:1010280047F48047C8F84470D8F8447007F48047FC
:101038000397039F23F0030707F1804707F59C37C1
:1010480003F0030CD7F808A04FEA8C0C4FF00F0EF2
:101058000EFA0CFEA8422AEA0E0E43D005F580656A
:10106800A84241D005F58065A8423FD005F58065C6
:10107800A8423DD005F58065A8423BD048453BD005
:1010880005F50065A84239D005F58065A84214BF6A
:101098000825072505FA0CF545EA0E05BD60156813
:1010A800F74314F4803F0CBF3D4035431560556845
:1010B80014F4003F0CBF3D4035435560956814F467
:1010C800801F0CBF3D4035439560D568A40254BFCE
:1010D8003D403543D5600133102B7FF444AF05B054
:1010E800BDE8F08F5D46D5E70125D3E70225D1E7B6
:1010F8000325CFE70425CDE70525CBE70625C9E776
:10110800003C014000000240003802400014024048
:101118000AB1816170470904FBE700002DE9F3413A
:10112800044618B9012002B0BDE8F0810368DD0764
:1011380010D42368980758D423681A0700F19A80B6
:1011480023685B0700F1B880A269002A40F0198182
:101158000020E8E7A64B9A6802F00C02042A07D0A0
:101168009A6802F00C02082A0AD15B68590207D56E
:101178009F4B1B689A03DCD56368002BD9D1D1E754
:1011880063689B4DB3F5803F11D12B6843F48033DE
:101198002B60FFF749FE964D06462B689B03C8D483
:1011A800FFF742FE801B6428F7D90320BBE7B3F59D
:1011B800A02F04D12B6843F480232B60E5E72A682D
:1011C80022F480322A602A6822F480222A60002BC6
:1011D800DFD1FFF729FE06462B689F03A9D5FFF745
:1011E80023FE801B6428F7D9DFE7814B9A6812F049
:1011F8000C0F07D09A6802F00C02082A11D15B681C
:101208005E020ED47A4B1A68950702D5E268012A65
:1012180088D11A68216922F0F80242EAC1021A60EC
:101228008AE7E268734BB2B101221A60FFF7FCFD4E
:101238006F4D06462B68980707D52B68226923F05F
:10124800F80343EAC2032B6076E7FFF7EDFD801B46
:101258000228EFD9A9E71A60FFF7E6FD644D0646B4
:101268002B6899077FF568AFFFF7DEFD801B022822
:10127800F6D99AE76269604B7AB101221A60FFF7E2
:10128800D3FD5B4D06466B6F9F073FF559AFFFF7E0
:10129800CBFD801B0228F6D987E71A60FFF7C4FD4B
:1012A800534D06466B6F98077FF54AAFFFF7BCFDB5
:1012B800801B0228F6D978E74D4B1A6C12F0805241
:1012C80028D101921A6C42F080521A641B6C03F008
:1012D80080530193019B0126484D2B68D9051BD5E6
:1012E800A368434D012B27D12B6F43F001032B67D4
:1012F800FFF79AFD3E4D074641F288382B6F9B0752
:1013080039D5002E3FF420AF394A136C23F08053AF
:10131800136419E70026DFE72B6843F480732B601A
:10132800FFF782FD07462B68DA05D9D4FFF77CFD65
:10133800C01B0228F7D938E7052B04D12B6F43F0DF
:1013480004032B67D0E72A6F22F001022A672A6F6D
:1013580022F004022A67002BCAD1FFF765FD41F28B
:10136800883807462B6F9807CBD5FFF75DFDC01B64
:101378004045F7D919E7FFF757FDC01B4045BDD9D0
:1013880013E71B4DAB6803F00C03082B3FF4CAAE00
:101398001B4E0023022A336034D1FFF745FD074670
:1013A8002B6899011ED4226AE3691343626A43EAEF
:1013B8008213E26A43EA0263A26A0D4C5208013AB8
:1013C80043EA02436B6001233360FFF72DFD0546B6
:1013D80023689A013FF5BCAEFFF726FD401B0228A3
:1013E800F6D9E2E6FFF720FDC01B0228D8D9DCE6D3
:1013F8000038024000004742800E4742007000401B
:1014080060004742FFF710FD04462B689B017FF5FB
:101418009FAEFFF709FD001B0228F6D9C5E600BFFD
:10142800014B01221A6070474C004742134908B526
:101438008B6803F00C03042B03D0082B03D010484F
:1014480008BD104808BD4A684B68496813F4800312
:1014580014BF0C480A48C1F3881118BF002302F0D2
:101468003F02A1FB0001FEF7ABFE044B5B68C3F330
:10147800014301335B00B0FBF3F008BD00380240C4
:101488000024F40000127A002DE9F0410D460446CC
:1014980010B90120BDE8F081444B1A6802F00F0230
:1014A8008A4228D321688F072DD4C80740D43F4BE0
:1014B8001A6802F00F02954266D3226851076CD46D
:1014C800130707D53A4A2169936823F4604343EA2E
:1014D800C1039360FFF7AAFF354B364A9B68C3F3F5
:1014E8000313D35CD840344B18600020FFF752FC3C
:1014F8000020BDE8F081CAB21A701B6803F00F0320
:101508009942C6D1CEE72A4B11F0040F1EBF9A6844
:1015180042F4E0529A600E0742BF9A6842F4604271
:101528009A609A68A06822F0F00202439A60BCE7C9
:1015380062681F4B012A1DD11B6813F4003FA8D015
:101548001B4EB36823F003031343B360FFF76CFC2F
:1015580041F288380746B368626803F00C03B3EBBE
:10156800820FA4D0FFF760FCC01B4045F3D90320CD
:10157800BDE8F081911E01291B6802D813F0007F95
:10158800DDE713F0020FDAE7EAB21A701B6803F01E
:101598000F039D427FF47DAF8FE70549E0688B68B4
:1015A80023F4E05303438B608AE700BF003C02400A
:1015B80000380240801B000804000020014B186816
:1015C800704700BF040000207047000008B5054BB5
:1015D800DB681B0604D5FFF7F7FF034B80221A7060
:1015E80008BD00BF003802400E380240036A23F0ED
:1015F80001030362036A426870B584690D6824F0C8
:10160800730425438C6823F0020323430C4CA04247
:1016180009D004F58064A04205D042604A6885611B
:101628004263036270BDCC688E6923F008032343CC
:101638004C6922F44072344323F004032243ECE75C
:1016480000000140036A23F480730362036A42685E
:1016580070B5C4690D6824F0730425438C6823F4BD
:10166800007343EA04230E4CA04209D004F58064B9
:10167800A04205D042604A68C561C263036270BD7A
:10168800CC688E6923F4006343EA04234C6922F48E
:101698004052344323F4806342EA0412EAE700BF6D
:1016A80000000140036A23F48053036230B5046AE2
:1016B8004368C2690D6822F4E64242EA05228D6851
:1016C80024F4005444EA0534094DA84209D005F52C
:1016D8008065A84205D043604B68C2610364046218
:1016E80030BD4D6923F4804343EA8513F3E700BF17
:1016F8000000014090F83830012B70B54FF002031C
:101708001CD080F839300368012280F838209A68A4
:1017180022F47F4222F077029A600A68402A79D040
:1017280019D8102A00F093800AD8002A00F089807E
:10173800012380F83930002380F83830184670BD0E
:10174800202A00F08A80302AF2D19A6822F07002AA
:1017580042F0370236E0702A36D01BD8502A42D0E1
:10176800602AE5D11C6A4D68CE6824F010041C621A
:1017780099691A6A21F4704122F0A00242EA05121E
:1017880041EA063199611A629A6822F0700242F0C1
:10179800670217E0B2F5805F11D0B2F5005FC7D1DC
:1017A8008A684D689C68C9682A4324F47F4442EAE1
:1017B800012222439A609A6842F4804202E09A68C1
:1017C80022F007029A60B3E78A684D689C68C96886
:1017D8002A4324F47F4442EA012222439A609A6809
:1017E80042F07702EEE74C68CE68196A1D6A25F068
:1017F80001051D629A6921F00A0122F0F00242EA0D
:10180800061221439A6119629A6822F0700242F026
:101818005702D7E74C68CE68196A1D6A25F001059A
:101828001D629A6921F00A0122F0F00242EA0612CA
:1018380021439A6119629A6822F0700242F04702C5
:10184800C0E79A6822F0700242F00702BAE79A6885
:1018580022F0700242F01702B4E79A6822F0700290
:1018680042F02702AEE700002E4A0368904212D0E9
:10187800B0F1804F0FD0A2F57C4290420BD002F518
:101888008062904207D002F58062904203D002F550
:10189800784290421DD14A6823F070031343214ACD
:1018A800904204D1CA6823F44073134328E0B0F18E
:1018B800804FF7D01C4A9042F4D002F580629042E3
:1018C800F0D002F580629042ECD002F57842904266
:1018D800E8D0164A9042E5D002F580629042E1D005
:1018E80002F580629042DDD0A2F598329042D9D0BC
:1018F80002F580629042D5D002F580629042D1D044
:1019080003608B68C3620B688362064B984206D0FB
:1019180003F58063984202D00123436170470B6945
:101928000363F9E700000140000400400040014063
:1019380010B50446A0B190F8393003F0FF021BB986
:1019480080F83820FFF7C8F8022384F83930206877
:10195800211DFFF789FF012384F83930002010BDCD
:10196800012010BD10B50446A0B190F8393003F03D
:10197800FF021BB980F83820FFF7F4F8022384F837
:1019880039302068211DFFF76FFF012384F83930B3
:10199800002010BD012010BD036A23F0100303626C
:1019A800036A426870B584690D6824F4E64444EA21
:1019B80005258C6823F0200343EA04130D4CA0424C
:1019C80009D004F58064A04205D042604A68856168
:1019D8008263036270BDCC688E6923F0800343EA9A
:1019E80004134C6922F44062344323F0400342EA72
:1019F8008402EAE70000014038B590F83830012B3E
:101A080004464FF0020025D0012384F8383084F8CA
:101A180039000C2A18D8DFE802F0071717171E1725
:101A280017172F17171740002068FFF7DFFD2368E7
:101A380009699A6942F008029A619A6922F00402D7
:101A48009A619A690A439A610123002084F839301F
:101A580084F8380038BD2068FFF79EFF23680969BD
:101A68009A6942F400629A619A6922F480629A61E2
:101A78009A6942EA0122E6E72068FFF7E3FD236856
:101A88000969DA6942F00802DA61DA6922F00402C7
:101A9800DA61DA690A43DA61D6E72068FFF702FEFD
:101AA80023680969DA6942F40062DA61DA6922F4C2
:101AB8008062DA61DA6942EA0122ECE7036A10B56A
:101AC80001248C4023EA04030362036A8A401A4310
:101AD800026210BD90F83830012B10B54FF00203A8
:101AE80018D080F8393003680C685A68496822F0C1
:101AF80070025A605A6822435A609A6822F080023B
:101B08009A609A680A439A60012380F83930002362
:101B180080F83830184610BD70B50D4E0D4CA41B1A
:101B2800A4100025A54209D10B4E0C4C00F018F862
:101B3800A41BA4100025A54205D170BD56F8253078
:101B480098470135EEE756F8253098470135F2E712
:101B5800981B0008981B0008981B00089C1B00088D
:101B6800F8B500BFF8BC08BC9E467047F8B500BF82
:081B7800F8BC08BC9E46704752
:101B8000000000000000000001020304060708092D
:081B900068E6FF7F0100000080
:041B9800AD01000893
:041B9C0089010008B3
:101BA000CDCCCC3C0024F40001000000100000006B
:04000005080004D912
:00000001FF
